:020000040800F2
:1000000000500020DD1F00082D1E0008351E0008CE
:100010003D1E0008451E00084D1E0008000000009F
:10002000000000000000000000000000551E000855
:10003000611E0008000000006D1E0008791E000807
:10004000252000082520000825200008252000087C
:10005000252000082520000825200008252000086C
:10006000252000082520000825200008252000085C
:10007000252000082520000825200008252000084C
:10008000252000082520000825200008252000083C
:10009000252000082520000825200008252000082C
:1000A000252000082520000825200008252000081C
:1000B000252000082520000825200008252000080C
:1000C00025200008252000082520000825200008FC
:1000D00025200008252000082520000825200008EC
:1000E0002520000825200008252000080000000029
:1000F0000000000000000000000000000000000000
:0C01000000000000000000005FF808F1A3
:1001100010B5054C237833B9044B13B10448AFF341
:1001200000800123237010BDDC01002000000000CE
:100130002C94000808B5034B1BB103490348AFF3E7
:10014000008008BD00000000E00100202C940008A1
:10015000034613F8012B002AFBD1181A0138704707
:1001600081F0004102E000BF83F0004330B54FEA68
:1001700041044FEA430594EA050F08BF90EA020FD5
:100180001FBF54EA000C55EA020C7FEA645C7FEA68
:10019000655C00F0E2804FEA5454D4EB5555B8BF8B
:1001A0006D420CDD2C4480EA020281EA030382EAFC
:1001B000000083EA010180EA020281EA0303362D8E
:1001C00088BF30BD11F0004F4FEA01314FF4801C61
:1001D0004CEA113102D0404261EB410113F0004F73
:1001E0004FEA03334CEA133302D0524263EB43032A
:1001F00094EA050F00F0A780A4F10104D5F1200EC8
:100200000DDB02FA0EFC22FA05F2801841F1000122
:1002100003FA0EF2801843FA05F359410EE0A5F1F6
:1002200020050EF1200E012A03FA0EFC28BF4CF027
:10023000020C43FA05F3C01851EBE37101F00045DD
:1002400007D54FF0000EDCF1000C7EEB00006EEBEA
:100250000101B1F5801F1BD3B1F5001F0CD3490874
:100260005FEA30004FEA3C0C04F101044FEA4452CB
:1002700012F5800F80F09A80BCF1004F08BF5FEA52
:10028000500C50F1000041EB045141EA050130BD32
:100290005FEA4C0C404141EB0101013C28BFB1F544
:1002A000801FE9D291F0000F04BF01460020B1FA8F
:1002B00081F308BF2033A3F10B03B3F120020CDA62
:1002C0000C3208DD02F1140CC2F10C0201FA0CF040
:1002D00021FA02F10CE002F11402D8BFC2F1200CA5
:1002E00001FA02F120FA0CFCDCBF41EA0C0190405B
:1002F000E41AA2BF01EB0451294330BD6FEA0404A4
:100300001F3C1CDA0C340EDC04F11404C4F120028E
:1003100020FA04F001FA02F340EA030021FA04F3A0
:1003200045EA030130BDC4F10C04C4F1200220FAF7
:1003300002F001FA04F340EA0300294630BD21FA35
:1003400004F0294630BD94F0000F83F4801306BFFB
:1003500081F480110134013D4EE77FEA645C18BFEF
:100360007FEA655C29D094EA050F08BF90EA020F86
:1003700005D054EA000C04BF1946104630BD91EA7E
:10038000030F1EBF0021002030BD5FEA545C05D181
:100390004000494128BF41F0004130BD14F58004C0
:1003A0003CBF01F5801130BD01F0004545F0FE4134
:1003B00041F470014FF0000030BD7FEA645C1ABF69
:1003C000194610467FEA655C1CBF0B46024650EAA0
:1003D000013406BF52EA033591EA030F41F40021CC
:1003E00030BD00BF90F0000F04BF0021704730B552
:1003F0004FF4806404F132044FF000054FF0000127
:1004000050E700BF90F0000F04BF0021704730B5E7
:100410004FF4806404F1320410F0004548BF4042BC
:100420004FF000013EE700BF42004FEAE2014FEA11
:1004300031014FEA02701FBF12F07F4393F07F4FEC
:1004400081F06051704732F07F4208BF704793F0EF
:100450007F4F04BF41F40021704730B54FF4607402
:1004600001F0004521F000411CE700BF50EA010205
:1004700008BF704730B54FF000050AE050EA0102AE
:1004800008BF704730B511F0004502D5404261EB1E
:1004900041014FF4806404F132045FEA915C3FF45F
:1004A000D8AE4FF003025FEADC0C18BF03325FEAFC
:1004B000DC0C18BF033202EBDC02C2F1200300FAAD
:1004C00003FC20FA02F001FA03FE40EA0E0021FAD2
:1004D00002F11444BDE600BF70B54FF0FF0C4CF4C0
:1004E000E06C1CEA11541DBF1CEA135594EA0C0F72
:1004F00095EA0C0F00F0DEF82C4481EA030621EAAD
:100500004C5123EA4C5350EA013518BF52EA0335E7
:1005100041F4801143F4801338D0A0FB02CE4FF099
:100520000005E1FB02E506F00042E0FB03E54FF0C9
:100530000006E1FB03569CF0000F18BF4EF0010EC1
:10054000A4F1FF04B6F5007F64F5407404D25FEABD
:100550004E0E6D4146EB060642EAC62141EA555170
:100560004FEAC52040EA5E504FEACE2EB4F1FD0CB2
:1005700088BFBCF5E06F1ED8BEF1004F08BF5FEA30
:10058000500E50F1000041EB045170BD06F00046E2
:1005900046EA010140EA020081EA0301B4EB5C048F
:1005A000C2BFD4EB0C0541EA045170BD41F4801187
:1005B0004FF0000E013C00F3AB8014F1360FDEBFAC
:1005C000002001F0004170BDC4F10004203C35DA88
:1005D0000C341BDC04F11404C4F1200500FA05F30B
:1005E00020FA04F001FA05F240EA020001F00042AC
:1005F00021F0004110EBD37021FA04F642EB060122
:100600005EEA430E08BF20EAD37070BDC4F10C044B
:10061000C4F1200500FA04F320FA05F001FA04F20F
:1006200040EA020001F0004110EBD37041F10001FB
:100630005EEA430E08BF20EAD37070BDC4F1200506
:1006400000FA05F24EEA020E20FA04F301FA05F26E
:1006500043EA020321FA04F001F0004121FA04F216
:1006600020EA020000EBD3705EEA430E08BF20EAE6
:10067000D37070BD94F0000F0FD101F00046400020
:1006800041EB010111F4801F08BF013CF7D041EAA2
:10069000060195F0000F18BF704703F000465200A6
:1006A00043EB030313F4801F08BF013DF7D043EA77
:1006B0000603704794EA0C0F0CEA135518BF95EA2D
:1006C0000C0F0CD050EA410618BF52EA4306D1D1B4
:1006D00081EA030101F000414FF0000070BD50EAD3
:1006E000410606BF1046194652EA430619D094EA5D
:1006F0000C0F02D150EA013613D195EA0C0F05D147
:1007000052EA03361CBF104619460AD181EA03019A
:1007100001F0004141F0FE4141F470014FF0000052
:1007200070BD41F0FE4141F4780170BD70B54FF0ED
:10073000FF0C4CF4E06C1CEA11541DBF1CEA13556D
:1007400094EA0C0F95EA0C0F00F0A7F8A4EB05044F
:1007500081EA030E52EA03354FEA013100F0888046
:100760004FEA03334FF0805545EA131343EA12630F
:100770004FEA022245EA111545EA10654FEA0026C4
:100780000EF000419D4208BF964244F1FD0404F57D
:10079000407402D25B084FEA3202B61A65EB0305D9
:1007A0005B084FEA32024FF480104FF4002CB6EB96
:1007B000020E75EB030E22BFB61A754640EA0C0016
:1007C0005B084FEA3202B6EB020E75EB030E22BF56
:1007D000B61A754640EA5C005B084FEA3202B6EB97
:1007E000020E75EB030E22BFB61A754640EA9C0056
:1007F0005B084FEA3202B6EB020E75EB030E22BF26
:10080000B61A754640EADC0055EA060E18D04FEAE3
:10081000051545EA16754FEA06164FEAC30343EA83
:1008200052734FEAC2025FEA1C1CC0D111F4801F50
:100830000BD141EA00014FF000004FF0004CB6E749
:1008400011F4801F04BF01430020B4F1FD0C88BFE8
:10085000BCF5E06F3FF6AFAEB5EB030C04BFB6EBF3
:10086000020C5FEA500C50F1000041EB045170BDE6
:100870000EF0004E4EEA113114EB5C04C2BFD4EB13
:100880000C0541EA045170BD41F480114FF0000E97
:10089000013C90E645EA060E8DE60CEA135594EA13
:1008A0000C0F08BF95EA0C0F3FF43BAF94EA0C0F16
:1008B0000AD150EA01347FF434AF95EA0C0F7FF48B
:1008C00025AF104619462CE795EA0C0F06D152EADF
:1008D00003353FF4FDAE1046194622E750EA4106C3
:1008E00018BF52EA43067FF4C5AE50EA41047FF4D4
:1008F0000DAF52EA43057FF4EBAE12E74FF0FF3C39
:1009000006E000BF4FF0010C02E000BF4FF0010C09
:100910004DF804CD4FEA410C7FEA6C5C4FEA430C82
:1009200018BF7FEA6C5C1BD001B050EA410C0CBFD1
:1009300052EA430C91EA030F02BF90EA020F002033
:10094000704710F1000F91EA030F58BF994208BF9A
:1009500090422CBFD8176FEAE37040F00100704757
:100960004FEA410C7FEA6C5C02D150EA013C07D1AE
:100970004FEA430C7FEA6C5CD6D152EA033CD3D0F9
:100980005DF8040B704700BF8446104662468C46F3
:100990001946634600E000BF01B5FFF7B7FF002826
:1009A00048BF10F1000F01BD4DF808EDFFF7F4FF4F
:1009B0000CBF012000205DF808FB00BF4DF808EDDA
:1009C000FFF7EAFF34BF012000205DF808FB00BFFD
:1009D0004DF808EDFFF7E0FF94BF012000205DF81F
:1009E00008FB00BF4DF808EDFFF7CEFF94BF0120D4
:1009F00000205DF808FB00BF4DF808EDFFF7C4FFCD
:100A000034BF012000205DF808FB00BF4FEA410C15
:100A10007FEA6C5C02D150EA013C0AD14FEA430CF8
:100A20007FEA6C5C02D152EA033C02D14FF0000035
:100A300070474FF0010070474FEA410212F5001273
:100A400015D211D56FF47873B3EB625212D94FEA15
:100A5000C12343F0004343EA505311F0004F23FAFF
:100A600002F018BF404270474FF00000704750EA54
:100A7000013005D111F0004008BF6FF00040704711
:100A80004FF00000704700BF4A0011D212F500126B
:100A900011D20DD56FF47873B3EB62520ED44FEAD6
:100AA000C12343F0004343EA505323FA02F0704756
:100AB0004FF00000704750EA013002D14FF0FF3094
:100AC00070474FF0000070474FEA4102B2F1E04337
:100AD00024BFB3F5001CDCF1FE5C0DD901F0004C25
:100AE0004FEAC0024CEA5070B2F1004F40EB830075
:100AF00008BF20F00100704711F0804F21D113F1A1
:100B00003872BCBF01F00040704741F480114FEAD9
:100B10005252C2F11802C2F1200C10FA0CF320FA62
:100B200002F018BF40F001004FEAC1234FEAD3237F
:100B300003FA0CFC40EA0C0023FA02F34FEA4303E9
:100B4000CCE77FEA625307D150EA01331EBF4FF072
:100B5000FE4040F44000704701F0004040F0FE408D
:100B600040F40000704700BF80F0004002E000BF8A
:100B700081F0004142001FBF5FEA410392EA030F88
:100B80007FEA226C7FEA236C6AD04FEA1262D2EBD2
:100B90001363C1BFD218414048404140B8BF5B42D7
:100BA000192B88BF704710F0004F40F4000020F070
:100BB0007F4018BF404211F0004F41F4000121F086
:100BC0007F4118BF494292EA030F3FD0A2F10102D0
:100BD00041FA03FC10EB0C00C3F1200301FA03F10E
:100BE00000F0004302D5494260EB4000B0F5000F31
:100BF00013D3B0F1807F06D340084FEA310102F1F0
:100C00000102FE2A51D2B1F1004F40EBC25008BFA1
:100C100020F0010040EA03007047490040EB00006B
:100C2000013A28BFB0F5000FEDD2B0FA80FCACF16C
:100C3000080CB2EB0C0200FA0CF0AABF00EBC25099
:100C400052421843BCBFD0401843704792F0000F87
:100C500081F4000106BF80F400000132013BB5E7DA
:100C60004FEA41037FEA226C18BF7FEA236C21D050
:100C700092EA030F04D092F0000F08BF08467047B5
:100C800090EA010F1CBF0020704712F07F4F04D183
:100C9000400028BF40F00040704712F100723CBF96
:100CA00000F50000704700F0004343F0FE4040F4C0
:100CB000000070477FEA226216BF08467FEA23637E
:100CC0000146420206BF5FEA412390EA010F40F469
:100CD000800070474FF0000304E000BF10F00043B5
:100CE00048BF40425FEA000C08BF704743F096439C
:100CF00001464FF000001CE050EA010208BF7047B7
:100D00004FF000030AE000BF50EA010208BF70473D
:100D100011F0004302D5404261EB41015FEA010C52
:100D200002BF84460146002043F0B64308BFA3F14A
:100D30008053A3F50003BCFA8CF2083AA3EBC2532C
:100D400010DB01FA02FC634400FA02FCC2F120024B
:100D5000BCF1004F20FA02F243EB020008BF20F082
:100D60000100704702F1200201FA02FCC2F12002E8
:100D700050EA4C0021FA02F243EB020008BF20EADD
:100D8000DC7070474FF0FF0C1CEAD0521EBF1CEA0B
:100D9000D15392EA0C0F93EA0C0F6FD01A4480EAF9
:100DA000010C400218BF5FEA41211ED04FF00063E2
:100DB00043EA501043EA5111A0FB01310CF000400E
:100DC000B1F5000F3EBF490041EAD3715B0040EA34
:100DD000010062F17F02FD2A1DD8B3F1004F40EB04
:100DE000C25008BF20F00100704790F0000F0CF0D7
:100DF000004C08BF49024CEA502040EA51207F3A9B
:100E0000C2BFD2F1FF0340EAC250704740F4000075
:100E10004FF00003013A5DDC12F1190FDCBF00F066
:100E200000407047C2F10002410021FA02F1C2F114
:100E3000200200FA02FC5FEA310040F1000053EAB0
:100E40004C0308BF20EADC70704792F0000F00F0FE
:100E5000004C02BF400010F4000F013AF9D040EA04
:100E60000C0093F0000F01F0004C02BF490011F498
:100E7000000F013BF9D041EA0C018FE70CEAD15396
:100E800092EA0C0F18BF93EA0C0F0AD030F0004C16
:100E900018BF31F0004CD8D180EA010000F00040CA
:100EA000704790F0000F17BF90F0004F084691F088
:100EB000000F91F0004F14D092EA0C0F01D14202C2
:100EC0000FD193EA0C0F03D14B0218BF084608D18B
:100ED00080EA010000F0004040F0FE4040F40000D5
:100EE000704740F0FE4040F4400070474FF0FF0C68
:100EF0001CEAD0521EBF1CEAD15392EA0C0F93EAAF
:100F00000C0F69D0A2EB030280EA010C49024FEA00
:100F1000402037D04FF0805343EA111143EA1013B9
:100F20000CF000408B4238BF5B0042F17D024FF471
:100F3000000C8B4224BF5B1A40EA0C00B3EB510F4C
:100F400024BFA3EB510340EA5C00B3EB910F24BF35
:100F5000A3EB910340EA9C00B3EBD10F24BFA3EBBA
:100F6000D10340EADC001B0118BF5FEA1C1CE0D182
:100F7000FD2A3FF650AF8B4240EBC25008BF20F035
:100F8000010070470CF0004C4CEA50207F32C2BF89
:100F9000D2F1FF0340EAC250704740F400004FF026
:100FA0000003013A37E792F0000F00F0004C02BF57
:100FB000400010F4000F013AF9D040EA0C0093F021
:100FC000000F01F0004C02BF490011F4000F013B7B
:100FD000F9D041EA0C0195E70CEAD15392EA0C0FE3
:100FE00008D142027FF47DAF93EA0C0F7FF470AF1B
:100FF000084676E793EA0C0F04D14B023FF44CAF5E
:1010000008466EE730F0004C18BF31F0004CCAD1F2
:1010100030F000427FF45CAF31F000437FF43CAF2E
:101020005FE700BF4FF0FF3C06E000BF4FF0010C50
:1010300002E000BF4FF0010C4DF804CD4FEA400232
:101040004FEA41037FEA226C18BF7FEA236C11D07C
:1010500001B052EA530C18BF90EA010F58BFB2EB2F
:10106000030088BFC81738BF6FEAE17018BF40F0AF
:10107000010070477FEA226C02D15FEA402C05D163
:101080007FEA236CE4D15FEA412CE1D05DF8040BE8
:10109000704700BF844608466146FFE70FB5FFF77B
:1010A000C9FF002848BF10F1000F0FBD4DF808ED33
:1010B000FFF7F4FF0CBF012000205DF808FB00BF24
:1010C0004DF808EDFFF7EAFF34BF012000205DF87E
:1010D00008FB00BF4DF808EDFFF7E0FF94BF0120CB
:1010E00000205DF808FB00BF4DF808EDFFF7D2FFC8
:1010F00094BF012000205DF808FB00BF4DF808ED0B
:10110000FFF7C8FF34BF012000205DF808FB00BFD7
:101110004FEA40024FEA41037FEA226C02D15FEAC4
:10112000402C08D17FEA236C02D15FEA412C02D126
:101130004FF0000070474FF0010070474FEA400247
:10114000B2F1FE4F0FD34FF09E03B3EB12620DD9F5
:101150004FEA002343F0004310F0004F23FA02F05F
:1011600018BF404270474FF00000704712F1610F06
:1011700001D1420205D110F0004008BF6FF00040DD
:1011800070474FF00000704738B500220023044636
:101190000D46FFF713FC28B920462946BDE8384024
:1011A00000F00AB8204605F1004100F005F8404281
:1011B00061EB410138BD00BFD0B500220B4B0646A4
:1011C0000F46FFF789F9FFF75FFC0446FFF70AF9BE
:1011D0000022074BFFF780F902460B46304639469E
:1011E000FEF7C2FFFFF750FC2146D0BD0000F03DE6
:1011F0000000F04180B483B000AF78604FF06043EE
:10120000D3F8803E03F00103002B13D04FF060436E
:10121000D3F8003E03F00103002B0BD000E000BF29
:101220004FF060431B68002BF9D04FF060437A68A1
:10123000D2B21A707B6818460C37BD4680BC704726
:1012400080B586B000AFF860B9607A6000237B613A
:1012500009E0BB685A1CBA601B781846FFF7CAFF42
:101260007B6901337B617A697B689A42F1DB7B6839
:1012700018461837BD4680BD80B586B004AF002340
:10128000FB716423029301230193FB1D009301234F
:101290006B22D021214801F011FB642000F026FFD1
:1012A0000723BB716423029301230193BB1D0093A9
:1012B00001231922D021194801F000FB0323BB713F
:1012C0006423029301230193BB1D009301231A227F
:1012D000D021124801F0F2FA0023BB71642302937B
:1012E00001230193BB1D009301231B22D0210B4836
:1012F00001F0E4FA0023BB716423029301230193FC
:10130000BB1D009301231C22D021044801F0D6FA12
:10131000002318460837BD4680BD00BFF8010020F5
:1013200080B586B004AF4FF0FF33029306230193DC
:101330003B46009301233B22D0212A4801F0B8FB11
:101340003B781BB21B021AB27B781BB213431AB252
:10135000254B1A80BB781BB21B021AB2FB781BB25A
:1013600013431AB2214B1A803B791BB21B021AB2EB
:101370007B791BB213431AB21D4B1A801A4BB3F977
:1013800000301846FFF7AAFC03464FF08D4118467F
:10139000FFF7ACFD03461A46164B1A60134BB3F920
:1013A00000301846FFF79AFC03464FF08D4118466F
:1013B000FFF79CFD03461A460F4B1A600C4BB3F91E
:1013C00000301846FFF78AFC03464FF08D4118465F
:1013D000FFF78CFD03461A46084B1A6000BF08371A
:1013E000BD4680BDF8010020080300200A0300204C
:1013F0000C03002014030020180300201C0300200D
:1014000080B586B004AF4FF0FF33029306230193FB
:101410003B46009301234322D021294801F048FB99
:101420003B781BB21B021AB27B781BB213431AB271
:10143000244B1A80BB781BB21B021AB2FB781BB27A
:1014400013431AB2204B1A803B791BB21B021AB20B
:101450007B791BB213431AB21C4B1A80194BB3F998
:1014600000301846FFF73AFC034619491846FFF7C3
:101470003DFD03461A46174B1A60134BB3F9003073
:101480001846FFF72BFC034611491846FFF72EFDBF
:1014900003461A46104B1A600C4BB3F9003018463D
:1014A000FFF71CFC03460A491846FFF71FFD0346D9
:1014B0001A460A4B1A6000BF0837BD4680BD00BF00
:1014C000F80100200E03002010030020120300206A
:1014D00000000343200300202403002028030020F1
:1014E00080B582B000AF78607B68B3F57A7F02DBAD
:1014F00040F2E7337B6001220121084801F082F8C5
:1015000000220221054801F07DF8054B1B687A682E
:101510005A6300BF0837BD4680BD00BF00080140C8
:101520004C02002080B582B000AF78607B68B3F5D4
:101530007A7F02DB40F2E7337B600022012108481A
:1015400001F060F801220221054801F05BF8054B2B
:101550001B687A685A6300BF0837BD4680BD00BF6C
:10156000000801404C02002090B585B000AF524BFE
:101570001B68BB60514B1B68B9681846FFF7F8FA47
:1015800003461A464E4B1A604D4B1B684D4A126873
:1015900011461846FFF7F6FB03461A464A4B1B68EE
:1015A00019461046FFF7E6FA03461A46464B1A60FC
:1015B000454B1B6845491846FFF7A0FD0346002B25
:1015C00002D0414B414A1A603F4B1B6840491846C4
:1015D000FFF776FD0346002B02D03B4B3C4A1A60D6
:1015E000374B1B683B4A126811461846FFF7C0FA92
:1015F00003461A46334B1B6819461046FFF776FC24
:1016000003467B60344B1B682D4A1268114618460E
:10161000FFF7B8FB03461C46304B1B682A4A12688A
:1016200011461846FFF7AEFB034619462046FFF762
:10163000A1FA03461C462A4B1B6879681846FFF737
:10164000A1FB034619462046FFF794FA0346FB60C8
:101650001B4B1B681F4A13602249F868FFF74EFDB9
:101660000346002B01D01F4BFB601F49F868FFF7B2
:1016700027FD0346002B01D01B4BFB604FF0000100
:10168000F868FFF73BFD0346002B07D0F868FFF72B
:1016900055FD03461846FFF723FF09E0FB6883F07A
:1016A00000431846FFF74AFD03461846FFF73AFF86
:1016B00000BF1437BD4690BDEC020020F8020020A8
:1016C000FC020020E0020020040300200000484348
:1016D000000048C30003002000000020F4020020A6
:1016E0000400002000007A4400007AC400000000DA
:1016F000B0B586B000AF00F097FC00F043F900F001
:1017000039FA00F085F900F0B1F900F009FA00218A
:101710008B4802F055FCFFF7AFFD00F0DDFC0346FF
:10172000884A1360FFF7FCFDFFF76AFE864B1B68D3
:10173000864A12681146184607F054FC034684494D
:101740001846FFF71FFB03461846FEF76DFE7AA307
:10175000D3E90023FEF7EAFF02460B46104619467E
:10176000FFF7B2F903463B617A4B1B6883F00044F4
:10177000754B1B68744A126811461846FFF702FB46
:1017800003461D46714B1B68704A12681146184685
:10179000FFF7F8FA034619462846FFF7EBF9034628
:1017A000184607F021FC03461946204607F01AFCAC
:1017B000034667491846FFF7E5FA03461846FEF761
:1017C00033FE5DA3D3E90023FEF7B0FF02460B46CC
:1017D00010461946FFF778F90346FB6000F07CFCE1
:1017E000B860584B1B68BA68D31A1846FFF772FAEC
:1017F000034659491846FFF779FB03467B61514A76
:10180000BB6813604FF000017869FFF763FC034683
:10181000002B01D0514B7B6151497869FFF76EFC79
:101820000346002B01D04E4B7B614E4A7B6913600F
:101830004D4B1B684B4A126811461846FFF7A2FA37
:1018400003461A46494B1B6819461046FFF792F9A2
:1018500003461A46454B1A60454B1B68414A1268BD
:1018600011461846FFF78EFA03461A46414B1B688D
:1018700019461046FFF77EF903461A463D4B1A609B
:101880003D4B7B60384B1B68364A12681146184640
:10189000FFF778FA03461A46384B1B68194610467C
:1018A000FFF768F9034679681846FFF76BFA0346B5
:1018B0001C4679684FF07E50FFF75AF903463969A4
:1018C0001846FFF75FFA034619462046FFF752F91C
:1018D00003461A46294B1A60254B1B68214A126899
:1018E00011461846FFF74EFA03461A46244B1B686A
:1018F00019461046FFF73EF9034679681846FFF788
:1019000041FA03461C4679684FF07E50FFF730F9E4
:101910000346F9681846FFF735FA0346194620468C
:10192000FFF728F903461A46154B1A60FFF71CFE0D
:10193000F8E600BFAFF30080182D4454FB210940A6
:101940004C020020DC020020180300201C030020B1
:10195000000034431403002000007A446F12833ADD
:10196000CDCC4C3DE002002020030020E40200200A
:1019700024030020E802002048E17A3FEC02002026
:10198000F002002080B590B000AF07F118032822C4
:101990000021184603F059FF3B1D00221A605A60CF
:1019A0009A60DA601A610123BB614FF48033FB61F6
:1019B00000233B620123BB6202237B634FF480332D
:1019C000BB634FF4E013FB6307F11803184601F003
:1019D00097FE0346002B01D000F016F90F237B6021
:1019E0000223BB600023FB604FF480633B61002354
:1019F0007B613B1D0221184602F004F90346002BCF
:101A000001D000F001F900BF4037BD4680BD0000A5
:101A100080B500AF124B134A1A60114B124A5A603C
:101A20000F4B00229A600E4B0022DA600C4B4FF4F1
:101A300080421A610A4B00225A61094B00229A61C6
:101A4000074B0022DA61064B00221A62044800F0BC
:101A5000F1FD0346002B01D000F0D6F800BF80BD99
:101A6000F801002000540040A086010080B58AB033
:101A700000AF07F1200300221A605A603B1D0022CC
:101A80001A605A609A60DA601A615A619A61224B50
:101A9000224A1A60204B48225A601F4B00229A604B
:101AA0001D4B40F2E732DA601B4B00221A611A4BE1
:101AB00000229A61184802F033FA0346002B01D045
:101AC00000F0A2F800233B6200237B6207F12003B1
:101AD0001946114802F0F2FD0346002B01D000F038
:101AE00093F860237B600023BB600023FB6000232E
:101AF0007B613B1D00221946074802F003FB0346A9
:101B0000002B01D000F080F8034800F011F900BF6D
:101B10002837BD4680BD00BF4C02002000040040B5
:101B200080B500AF114B124A1A60104B4FF4E132EE
:101B30005A600E4B00229A600C4B0022DA600B4B6D
:101B400000221A61094B0C225A61084B00229A614B
:101B5000064B0022DA61054802F00EFE0346002B18
:101B600001D000F051F800BF80BD00BF94020020FA
:101B70000038014080B588B000AF07F110030022A3
:101B80001A605A609A60DA601D4B9B691C4A43F0E8
:101B9000200393611A4B9B6903F02003FB60FB68F1
:101BA000174B9B69164A43F004039361144B9B69DE
:101BB00003F00403BB60BB68114B9B69104A43F000
:101BC000080393610E4B9B6903F008037B607B68FD
:101BD000002207210B4800F015FD07233B6101237C
:101BE0007B610023BB610223FB6107F110031946EF
:101BF000044800F083FB00BF2037BD4680BD00BF16
:101C0000001002400008014080B400AF72B600BF6F
:101C100000BFFDE780B485B000AF154B9B69144A47
:101C200043F001039361124B9B6903F00103BB6016
:101C3000BB680F4BDB690E4A43F08053D3610C4BFA
:101C4000DB6903F080537B607B680A4B5B68FB6059
:101C5000FB6823F0E063FB60FB6843F00073FB600C
:101C6000044AFB68536000BF1437BD4680BC704710
:101C7000001002400000014080B588B000AF7860DD
:101C800007F1100300221A605A609A60DA607B68DC
:101C90001B68154A934223D1144B9B69134A43F0A6
:101CA00008039361114B9B6903F00803FB60FB6819
:101CB000C0233B6112237B610323FB6107F1100307
:101CC00019460B4800F01AFB084BDB69074A43F43E
:101CD0000013D361054BDB6903F40013BB60BB68E1
:101CE00000BF2037BD4680BD0054004000100240B8
:101CF000000C014080B485B000AF78607B681B6841
:101D0000094A93420BD1094BDB69084A43F00203AD
:101D1000D361064BDB6903F00203FB60FB6800BF85
:101D20001437BD4680BC70470004004000100240DC
:101D300080B588B000AF786007F1100300221A6008
:101D40005A609A60DA607B681B680F4A934217D129
:101D50000E4B9B690D4A43F0040393610B4B9B6947
:101D600003F00403FB60FB6840233B6102237B61BB
:101D70000223FB6107F110031946054800F0BEFA83
:101D800000BF2037BD4680BD000400400010024067
:101D90000008014080B588B000AF786007F11003FB
:101DA00000221A605A609A60DA607B681B681C4ADD
:101DB000934231D11B4B9B691A4A43F48043936190
:101DC000184B9B6903F48043FB60FB68154B9B69D0
:101DD000144A43F004039361124B9B6903F004031C
:101DE000BB60BB684FF400733B6102237B6103233C
:101DF000FB6107F1100319460B4800F07FFA4FF41E
:101E000080633B6100237B610023BB6107F110030A
:101E10001946054800F072FA00BF2037BD4680BD64
:101E200000380140001002400008014080B400AFBB
:101E300000BFFDE780B400AF00BFFDE780B400AF96
:101E400000BFFDE780B400AF00BFFDE780B400AF86
:101E500000BFFDE780B400AF00BFBD4680BC704747
:101E600080B400AF00BFBD4680BC704780B400AFF7
:101E700000BFBD4680BC704780B500AF00F01AF9C6
:101E800000BF80BD80B400AF01231846BD4680BCB2
:101E9000704780B582B000AF7860396003F028FDEC
:101EA000034616221A604FF0FF3318460837BD4626
:101EB00080BD80B582B000AF78604FF0FF317868A8
:101EC000FFF7E7FF00BFFDE780B586B000AFF86021
:101ED000B9607A6000237B610AE0AFF300800146BD
:101EE000BB685A1CBA60CAB21A707B6901337B6145
:101EF0007A697B689A42F0DB7B6818461837BD46E2
:101F000080BD80B483B000AF78604FF0FF331846D7
:101F10000C37BD4680BC704780B483B000AF78609A
:101F200039603B684FF400525A60002318460C3762
:101F3000BD4680BC704780B483B000AF7860012399
:101F400018460C37BD4680BC704780B485B000AFE2
:101F5000F860B9607A60002318461437BD4680BC2B
:101F60007047000080B586B000AF7860144A154B0A
:101F7000D31A7B617B693B61134B1B68002B02D139
:101F8000114B124A1A60104B1A687B6813443A6965
:101F90009A4207D203F0ACFC03460C221A604FF0C1
:101FA000FF3309E0084B1B68FB60074B1A687B682E
:101FB0001344054A1360FB6818461837BD4680BDB8
:101FC00000500020000400002C03002080040020AA
:101FD00080B400AF00BFBD4680BC7047FFF7F8FF7C
:101FE0000B480C490C4A002302E0D458C450043377
:101FF000C4188C42F9D3094A094C002301E013604C
:102000000432A242FBD303F079FCFFF771FB704767
:1020100000000020DC010020EC980008DC0100201A
:1020200080040020FEE7000080B500AF084B1B686D
:10203000074A43F010031360032000F02BF90F2030
:1020400000F008F8FFF7E6FD0023184680BD00BF4A
:102050000020024080B582B000AF7860124B1A6851
:10206000124B1B7819464FF47A73B3FBF1F3B2FBB2
:10207000F3F3184600F035F90346002B01D0012395
:102080000EE07B680F2B0AD8002279684FF0FF30F2
:1020900000F00BF9064A7B681360002300E001237F
:1020A00018460837BD4680BD0800002010000020FB
:1020B0000C00002080B400AF054B1B781A46054B7E
:1020C0001B681344034A136000BFBD4680BC7047C1
:1020D000100000203003002080B400AF024B1B68CA
:1020E0001846BD4680BC70473003002080B584B0E0
:1020F00000AF7860FFF7F0FFB8607B68FB60FB68BB
:10210000B3F1FF3F05D00A4B1B781A46FB68134416
:10211000FB6000BFFFF7E0FF0246BB68D31AFA6816
:102120009A42F7D800BF00BF1037BD4680BD00BF40
:102130001000002080B485B000AF78607B6803F0A9
:102140000703FB600C4BDB68BB60BA684FF6FF030C
:102150001340BB60FB681A02BB68134343F0BF63C4
:1021600043F40033BB60044ABB68D36000BF14373C
:10217000BD4680BC704700BF00ED00E080B400AFFA
:10218000044BDB681B0A03F007031846BD4680BCFE
:10219000704700BF00ED00E080B483B000AF03469D
:1021A0003960FB7197F90730002B0ADB3B68DAB224
:1021B0000C4997F907301201D2B20B4483F800237F
:1021C0000AE03B68DAB20849FB7903F00F03043BED
:1021D0001201D2B20B441A7600BF0C37BD4680BC48
:1021E000704700BF00E100E000ED00E080B489B07E
:1021F00000AFF860B9607A60FB6803F00703FB6129
:10220000FB69C3F10703042B28BF0423BB61FB69EF
:102210000433062B02D9FB69033B00E000237B61FA
:102220004FF0FF32BB6902FA03F3DA43BB681A408E
:102230007B699A404FF0FF317B6901FA03F3D94380
:102240007B680B40134318462437BD4680BC70475B
:1022500080B582B000AF78607B68013BB3F1807FCE
:1022600001D301230FE00A4A7B68013B53600F2131
:102270004FF0FF30FFF790FF054B00229A60044BB0
:1022800007221A60002318460837BD4680BD00BFEC
:1022900010E000E080B582B000AF78607868FFF7AA
:1022A00049FF00BF0837BD4680BD80B586B000AF8E
:1022B0000346B9607A60FB7300237B61FFF75EFF22
:1022C00078617A68B9687869FFF790FF024697F9F4
:1022D0000F3011461846FFF75FFF00BF1837BD46A5
:1022E00080BD80B582B000AF78607868FFF7B0FF3E
:1022F000034618460837BD4680BD000080B48BB049
:1023000000AF7860396000237B6200233B6269E1A3
:1023100001227B6A02FA03F3FB613B681B68FA69DE
:102320001340BB61BA69FB699A4240F058813B682F
:102330005B689A4A93425ED0984A934275D8984A0D
:10234000934258D0964A93426FD8964A934252D0BD
:10235000944A934269D8944A93424CD0924A934209
:1023600063D8924A934246D0904A93425DD8122B4A
:102370002AD8122B59D801A252F823F0F7230008CB
:10238000D1230008E3230008252400082B2400089B
:102390002B2400082B2400082B2400082B240008E1
:1023A0002B2400082B2400082B2400082B240008D1
:1023B0002B2400082B2400082B2400082B240008C1
:1023C000D9230008ED230008794A934213D02CE06A
:1023D0003B68DB683B6229E03B68DB6804333B62B7
:1023E00024E03B68DB6808333B621FE03B68DB6846
:1023F0000C333B621AE03B689B68002B02D104233C
:102400003B6213E03B689B68012B05D108233B62CC
:102410007B68FA691A6109E008233B627B68FA6904
:102420005A6103E000233B6200E000BFBB69FF2B61
:1024300001D87B6801E07B6804337B61BB69FF2BBB
:1024400002D87B6A9B0002E07B6A083B9B003B61F1
:102450007B691A680F213B6901FA03F3DB431A40D9
:10246000396A3B6901FA03F31A437B691A603B68D6
:102470005B6803F08053002B00F0B1804D4B9B69EB
:102480004C4A43F0010393614A4B9B6903F00103FB
:10249000BB60BB68484A7B6A9B08023352F8233012
:1024A000FB607B6A03F003039B000F2202FA03F335
:1024B000DB43FA681340FB607B68404A934213D0C9
:1024C0007B683F4A93420DD07B683E4A934207D0D7
:1024D0007B683D4A934201D1032306E0042304E0D4
:1024E000022302E0012300E000237A6A02F00302E3
:1024F00092009340FA681343FB602F497B6A9B0864
:102500000233FA6841F823203B685B6803F48013C8
:10251000002B06D02D4B9A682C49BB6913438B6066
:1025200006E02A4B9A68BB69DB43284913408B605D
:102530003B685B6803F40013002B06D0234BDA687A
:102540002249BB691343CB6006E0204BDA68BB69C4
:10255000DB431E491340CB603B685B6803F40033E8
:10256000002B06D0194B5A681849BB6913434B60BE
:1025700006E0164B5A68BB69DB43144913404B60B5
:102580003B685B6803F48033002B21D00F4B1A6843
:102590000E49BB6913430B6021E000BF00003210FD
:1025A0000000311000002210000021100000121065
:1025B000000011100010024000000140000801401E
:1025C000000C0140001001400014014000040140D3
:1025D0000B4B1A68BB69DB43094913400B607B6AEC
:1025E00001337B623B681A687B6A22FA03F3002B93
:1025F0007FF48EAE00BF00BF2C37BD4680BC704755
:102600000004014080B483B000AF78600B467B804B
:1026100013467B707B78002B03D07A887B681A6125
:1026200003E07B881A047B681A6100BF0C37BD4643
:1026300080BC704780B584B000AF78607B68002BA9
:1026400001D101232BE17B6893F83D30DBB2002BF5
:1026500006D17B68002283F83C207868FFF70CFBEA
:102660007B68242283F83D207B681B681A687B689E
:102670001B6822F001021A607B681B681A687B687D
:102680001B6842F400421A607B681B681A687B680A
:102690001B6822F400421A6001F0FCFBF8607B68C2
:1026A0005B68814A934207D8FB68804A934294BF93
:1026B00001230023DBB206E0FB687D4A934294BF0E
:1026C00001230023DBB2002B01D00123E7E0FB68EC
:1026D000784AA2FB03239B0CBB607B681B685B688A
:1026E00023F03F017B681B68BA680A435A607B6825
:1026F0001B681B6A23F03F017B685B686A4A934250
:1027000002D8BB68013309E0BB684FF4967202FB44
:1027100003F3694AA2FB03239B0901337A68126819
:102720000B4313627B681B68DB6923F44F4222F082
:10273000FF027B685B685C498B4219D8FB68591EB5
:102740007B685B685B00B1FBF3F3591C40F6FC73DC
:102750000B40002B0AD0FB68591E7B685B685B004E
:10276000B1FBF3F30133C3F30B0351E004234FE058
:102770007B689B68002B11D1FB68581E7B685968E9
:102780000B465B000B44B0FBF3F30133C3F30B03C5
:10279000002B0CBF01230023DBB212E0FB68581EA4
:1027A0007B6859680B469B000B4499000B44B0FBB7
:1027B000F3F30133C3F30B03002B0CBF01230023FE
:1027C000DBB2002B01D0012322E07B689B68002B49
:1027D0000ED1FB68581E7B6859680B465B000B44A2
:1027E000B0FBF3F30133C3F30B0343F400430FE0F7
:1027F000FB68581E7B6859680B469B000B44990088
:102800000B44B0FBF3F30133C3F30B0343F4404336
:10281000796809681343CB617B681B681B6823F0E8
:10282000C0017B68DA697B681B6A1A437B681B6896
:102830000A431A607B681B689B6823F4034323F0F8
:10284000FF037A6811697A68D26811437A6812685E
:102850000B4393607B681B68DB6823F0FF017B6898
:102860005A697B689B691A437B681B680A43DA6074
:102870007B681B681A687B681B6842F001021A605B
:102880007B6800221A647B68202283F83D207B68E5
:1028900000221A637B68002283F83E20002318463A
:1028A0001037BD4680BD00BFA08601007F841E009A
:1028B000FF083D0083DE1B43D34D621080B588B016
:1028C00002AFF860084611461A4603467B810B4664
:1028D0003B811346FB80FFF7FFFB7861FB6893F8B1
:1028E0003D30DBB2202B40F0D9807B690093192367
:1028F00001226D49F86800F0CDFC0346002B01D0A1
:102900000223CCE0FB6893F83C30012B01D1022379
:10291000C5E0FB68012283F83C20FB681B681B684C
:1029200003F00103012B07D0FB681B681A68FB68E2
:102930001B6842F001021A60FB681B681A68FB689A
:102940001B6822F400621A60FB68212283F83D2094
:10295000FB68402283F83E20FB6800221A64FB6873
:102960003A6A5A62FB68BA8C5A85FB685B8D9AB2E8
:10297000FB681A85FB684D4ADA62F8883A897989DA
:102980007B690193BB6A00930346F86800F004FB7F
:102990000346002B52D0012381E07A69B96AF868B6
:1029A00000F092FD0346002B0DD0FB681B6C042B3E
:1029B00007D1FB681B681A68FB681B6842F4007249
:1029C0001A6001236BE0FB685B6A1A78FB681B687E
:1029D0001A61FB685B6A5A1CFB685A62FB681B8DB4
:1029E000013B9AB2FB681A85FB685B8D9BB2013B89
:1029F0009AB2FB685A85FB681B685B6903F00403A5
:102A0000042B1BD1FB681B8D002B17D0FB685B6A66
:102A10001A78FB681B681A61FB685B6A5A1CFB68C2
:102A20005A62FB681B8D013B9AB2FB681A85FB68F2
:102A30005B8D9BB2013B9AB2FB685A85FB681B8D8C
:102A4000002BAAD17A69B96AF86800F085FD0346BF
:102A5000002B0DD0FB681B6C042B07D1FB681B6897
:102A60001A68FB681B6842F400721A60012316E0C2
:102A7000FB681B681A68FB681B6842F400721A60E6
:102A8000FB68202283F83D20FB68002283F83E206B
:102A9000FB68002283F83C20002300E00223184654
:102AA0001837BD4680BD00BF020010000000FFFFC8
:102AB00080B58CB002AFF860084611461A4603464E
:102AC0007B810B463B811346FB8000233B62FFF773
:102AD00003FB7862FB6893F83D30DBB2202B40F0BB
:102AE00050827B6A0093192301228249F86800F022
:102AF000D1FB0346002B01D0022343E2FB6893F88D
:102B00003C30012B01D102233CE2FB68012283F817
:102B10003C20FB681B681B6803F00103012B07D0F6
:102B2000FB681B681A68FB681B6842F001021A60A8
:102B3000FB681B681A68FB681B6822F400621A6055
:102B4000FB68222283F83D20FB68402283F83E2068
:102B5000FB6800221A64FB683A6B5A62FB68BA8E03
:102B60005A85FB685B8D9AB2FB681A85FB68624ADE
:102B7000DA62F8883A8979897B6A0193BB6B0093A2
:102B80000346F86800F09EFA0346002B01D00123AB
:102B9000F8E1FB681B8D002B13D10023FB61FB6860
:102BA0001B685B69FB61FB681B689B69FB61FB69D8
:102BB000FB681B681A68FB681B6842F400721A60A5
:102BC000CCE1FB681B8D012B1ED1FB681B681A68CA
:102BD000FB681B6822F480621A6072B600BF002393
:102BE000BB61FB681B685B69BB61FB681B689B6919
:102BF000BB61BB69FB681B681A68FB681B6842F411
:102C000000721A6062B635E0FB681B8D022B1ED184
:102C1000FB681B681A68FB681B6842F400621A6054
:102C200072B600BF00237B61FB681B685B697B6138
:102C3000FB681B689B697B617B69FB681B681A6882
:102C4000FB681B6822F480621A6062B612E0FB68BF
:102C50001B681A68FB681B6842F480621A600023D4
:102C60003B61FB681B685B693B61FB681B689B6998
:102C70003B613B6972E1FB681B8D032B00F21F81F6
:102C8000FB681B8D012B23D17A6AB96BF86800F0C1
:102C9000ABFC0346002B01D0012373E1FB681B68EA
:102CA0001A69FB685B6AD2B21A70FB685B6A5A1CCD
:102CB000FB685A62FB681B8D013B9AB2FB681A8560
:102CC000FB685B8D9BB2013B9AB2FB685A8545E17C
:102CD000FB681B8D022B52D17B6A0093BB6B0022D9
:102CE0000649F86800F0D6FA0346002B08D0012305
:102CF00048E100BF020010000000FFFF04000100D7
:102D000072B600BFFB681B681A68FB681B6842F458
:102D100000721A60FB681B681A69FB685B6AD2B2B2
:102D20001A70FB685B6A5A1CFB685A62FB681B8D51
:102D3000013B9AB2FB681A85FB685B8D9BB2013B35
:102D40009AB2FB685A8562B600BFFB681B681A69B5
:102D5000FB685B6AD2B21A70FB685B6A5A1CFB683C
:102D60005A62FB681B8D013B9AB2FB681A85FB68AF
:102D70005B8D9BB2013B9AB2FB685A85EEE07B6AA1
:102D80000093BB6B00228149F86800F083FA034688
:102D9000002B01D00123F5E0FB681B681A68FB6873
:102DA0001B6822F480621A6072B600BFFB681B6861
:102DB0001A69FB685B6AD2B21A70FB685B6A5A1CBC
:102DC000FB685A62FB681B8D013B9AB2FB681A854F
:102DD000FB685B8D9BB2013B9AB2FB685A856C4BDA
:102DE0001B68DB086B4AA2FB03231A0A13469B00ED
:102DF0001344DA00D31A3B623B6A013B3B623B6AF5
:102E0000002B18D1FB6800221A63FB68202283F88C
:102E10003D20FB68002283F83E20FB681B6C43F0DA
:102E20002002FB681A6462B600BFFB68002283F8C8
:102E30003C200123A6E0FB681B685B6903F00403E8
:102E4000042BD9D1FB681B681A68FB681B6842F425
:102E500000721A60FB681B681A69FB685B6AD2B271
:102E60001A70FB685B6A5A1CFB685A62FB681B8D10
:102E7000013B9AB2FB681A85FB685B8D9BB2013BF4
:102E80009AB2FB685A8562B600BFFB681B681A6974
:102E9000FB685B6AD2B21A70FB685B6A5A1CFB68FB
:102EA0005A62FB681B8D013B9AB2FB681A85FB686E
:102EB0005B8D9BB2013B9AB2FB685A854EE07A6A01
:102EC000B96BF86800F090FB0346002B01D001239A
:102ED00058E0FB681B681A69FB685B6AD2B21A701B
:102EE000FB685B6A5A1CFB685A62FB681B8D013BDE
:102EF0009AB2FB681A85FB685B8D9BB2013B9AB264
:102F0000FB685A85FB681B685B6903F00403042BAC
:102F100024D1FB681B8D032B07D1FB681B681A6843
:102F2000FB681B6822F480621A60FB681B681A69E0
:102F3000FB685B6AD2B21A70FB685B6A5A1CFB685A
:102F40005A62FB681B8D013B9AB2FB681A85FB68CD
:102F50005B8D9BB2013B9AB2FB685A85FB681B8D67
:102F6000002B7FF488AEFB68202283F83D20FB68AD
:102F7000002283F83E20FB68002283F83C200023D7
:102F800000E0022318462837BD4680BD040001003A
:102F90000800002089B5F81480B588B002AFF86049
:102FA000084611461A4603467B810B463B81134671
:102FB000FB80FB681B681A68FB681B6842F4807220
:102FC0001A607B6A00933B6A00224FF00111F86897
:102FD00000F060F90346002B0DD0FB681B681B68EE
:102FE00003F48073B3F5807F03D1FB684FF4007264
:102FF0001A6403235FE07B89DBB21A46FB681B6817
:1030000002F0FE021A617B6A3A6A2D49F86800F004
:10301000BBF90346002B01D001234CE000237B6168
:10302000FB681B685B697B61FB681B689B697B6154
:103030007B697A6A396AF86800F046FA0346002B21
:103040000DD0FB681B6C042B07D1FB681B681A684A
:10305000FB681B6842F400721A6001232BE0FB88B6
:10306000012B05D13B89DAB2FB681B681A6121E0AC
:103070003B891B0A9BB2DAB2FB681B681A617A6A49
:10308000396AF86800F020FA0346002B0DD0FB687F
:103090001B6C042B07D1FB681B681A68FB681B6854
:1030A00042F400721A60012305E03B89DAB2FB6842
:1030B0001B681A61002318461837BD4680BD00BF43
:1030C0000200010080B588B002AFF86008461146E2
:1030D0001A4603467B810B463B811346FB80FB6807
:1030E0001B681A68FB681B6842F480621A60FB6800
:1030F0001B681A68FB681B6842F480721A607B6A5E
:1031000000933B6A00224FF00111F86800F0C2F80A
:103110000346002B0DD0FB681B681B6803F480730B
:10312000B3F5807F03D1FB684FF400721A64032368
:10313000AAE07B89DBB21A46FB681B6802F0FE023C
:103140001A617B6A3A6A5249F86800F01DF9034631
:10315000002B01D0012397E000237B61FB681B68F3
:103160005B697B61FB681B689B697B617B697A6A31
:10317000396AF86800F0A8F90346002B0DD0FB6807
:103180001B6C042B07D1FB681B681A68FB681B6863
:1031900042F400721A60012376E0FB88012B05D10E
:1031A0003B89DAB2FB681B681A6121E03B891B0A84
:1031B0009BB2DAB2FB681B681A617A6A396AF868EE
:1031C00000F082F90346002B0DD0FB681B6C042B2A
:1031D00007D1FB681B681A68FB681B6842F4007221
:1031E0001A60012350E03B89DAB2FB681B681A6160
:1031F0007A6A396AF86800F067F90346002B0DD047
:10320000FB681B6C042B07D1FB681B681A68FB6802
:103210001B6842F400721A60012335E0FB681B68EA
:103220001A68FB681B6842F480721A607B6A00931C
:103230003B6A00224FF00111F86800F02BF80346BA
:10324000002B0DD0FB681B681B6803F48073B3F57B
:10325000807F03D1FB684FF400721A64032313E0EC
:103260007B89DBB243F00103DAB2FB681B681A61A9
:103270007B6A3A6A0649F86800F086F80346002B34
:1032800001D0012300E0002318461837BD4680BD59
:103290000200010080B584B000AFF860B9603B6007
:1032A0001346FB7148E03B68B3F1FF3F44D0FEF7A3
:1032B00013FF0246BB69D31A3A689A4202D33B68AD
:1032C000002B39D1BB681B0CDBB2012B0DD1FB6885
:1032D0001B685B69DA43BB6813409BB2002B0CBFD1
:1032E00001230023DBB21A460CE0FB681B689B69D4
:1032F000DA43BB6813409BB2002B0CBF01230023B1
:10330000DBB21A46FB799A4216D1FB6800221A6397
:10331000FB68202283F83D20FB68002283F83E20D2
:10332000FB681B6C43F02002FB681A64FB680022F8
:1033300083F83C20012323E0BB681B0CDBB2012B8C
:103340000DD1FB681B685B69DA43BB6813409BB215
:10335000002B0CBF01230023DBB21A460CE0FB68F4
:103360001B689B69DA43BB6813409BB2002B0CBF00
:1033700001230023DBB21A46FB799A4293D0002343
:1033800018461037BD4680BD80B584B000AFF860E8
:10339000B9607A603B6071E0FB681B685B6903F4AD
:1033A0008063B3F5806F23D1FB681B681A68FB68E4
:1033B0001B6842F400721A60FB681B686FF480623D
:1033C0005A61FB6800221A63FB68202283F83D20C3
:1033D000FB68002283F83E20FB681B6C43F004026C
:1033E000FB681A64FB68002283F83C20012367E035
:1033F0007B68B3F1FF3F41D0FEF76EFE02463B68AB
:10340000D31A7A689A4202D37B68002B36D1BB6804
:103410001B0CDBB2012B0CD1FB681B685B69DA4328
:10342000BB6813409BB2002B14BF01230023DBB207
:103430000BE0FB681B689B69DA43BB6813409BB2D7
:10344000002B14BF01230023DBB2002B16D0FB6836
:1034500000221A63FB68202283F83D20FB680022CB
:1034600083F83E20FB681B6C43F02002FB681A6463
:10347000FB68002283F83C20012321E0BB681B0C81
:10348000DBB2012B0CD1FB681B685B69DA43BB68BC
:1034900013409BB2002B14BF01230023DBB20BE0CF
:1034A000FB681B689B69DA43BB6813409BB2002B27
:1034B00014BF01230023DBB2002B7FF46DAF002388
:1034C00018461037BD4680BD80B584B000AFF860A7
:1034D000B9607A6034E0F86800F0E3F80346002B46
:1034E00001D0012334E0BB68B3F1FF3F28D0FEF7E1
:1034F000F3FD02467B68D31ABA689A4202D3BB68CE
:10350000002B1DD1FB681B685B6903F08003802BD7
:1035100016D0FB6800221A63FB68202283F83D2046
:10352000FB68002283F83E20FB681B6C43F02002FE
:10353000FB681A64FB68002283F83C20012307E043
:10354000FB681B685B6903F08003802BC3D10023F9
:1035500018461037BD4680BD80B584B000AFF86016
:10356000B9607A6034E0F86800F09BF80346002BFD
:1035700001D0012334E0BB68B3F1FF3F28D0FEF750
:10358000ABFD02467B68D31ABA689A4202D3BB6885
:10359000002B1DD1FB681B685B6903F00403042B3F
:1035A00016D0FB6800221A63FB68202283F83D20B6
:1035B000FB68002283F83E20FB681B6C43F020026E
:1035C000FB681A64FB68002283F83C20012307E0B3
:1035D000FB681B685B6903F00403042BC3D1002361
:1035E00018461037BD4680BD80B584B000AFF86086
:1035F000B9607A6049E0FB681B685B6903F01003FF
:10360000102B19D1FB681B686FF010025A61FB6820
:1036100000221A63FB68202283F83D20FB68002209
:1036200083F83E20FB681A6CFB681A64FB68002272
:1036300083F83C20012330E0FEF74EFD02467B6814
:10364000D31ABA689A4202D3BB68002B1DD1FB681B
:103650001B685B6903F04003402B16D0FB68002217
:103660001A63FB68202283F83D20FB68002283F860
:103670003E20FB681B6C43F02002FB681A64FB6869
:10368000002283F83C20012307E0FB681B685B698C
:1036900003F04003402BAED1002318461037BD463F
:1036A00080BD80B483B000AF78607B681B685B69C5
:1036B00003F48063B3F5806F1BD17B681B686FF4E4
:1036C00080625A617B6800221A637B68202283F83B
:1036D0003D207B68002283F83E207B681B6C43F012
:1036E00004027B681A647B68002283F83C20012373
:1036F00000E0002318460C37BD4680BC7047000030
:1037000080B586B000AF78607B68002B01D10123C3
:1037100072E27B681B6803F00103002B00F08780D6
:10372000924B5B6803F00C03042B0CD08F4B5B684F
:1037300003F00C03082B12D18C4B5B6803F480332D
:10374000B3F5803F0BD1894B1B6803F40033002B8A
:103750006CD07B685B68002B68D101234CE27B68EE
:103760005B68B3F5803F06D1804B1B687F4A43F40A
:10377000803313602EE07B685B68002B0CD17B4BA1
:103780001B687A4A23F480331360784B1B68774AAE
:1037900023F4802313601DE07B685B68B3F5A02FE2
:1037A0000CD1724B1B68714A43F4802313606F4B3A
:1037B0001B686E4A43F4803313600BE06B4B1B684D
:1037C0006A4A23F480331360684B1B68674A23F40A
:1037D000802313607B685B68002B13D0FEF77CFCB2
:1037E000386108E0FEF778FC02463B69D31A642B87
:1037F00001D9032300E25D4B1B6803F40033002B67
:10380000F0D014E0FEF768FC386108E0FEF764FCD5
:1038100002463B69D31A642B01D90323ECE1534BD5
:103820001B6803F40033002BF0D100E000BF7B687D
:103830001B6803F00203002B63D04C4B5B6803F062
:103840000C03002B0BD0494B5B6803F00C03082BD7
:103850001CD1464B5B6803F48033002B16D1434BDD
:103860001B6803F00203002B05D07B681B69012B4A
:1038700001D00123C0E13D4B1B6823F0F8027B68B7
:103880005B69DB00394913430B603AE07B681B69D5
:10389000002B20D0364B01221A60FEF71DFC386148
:1038A00008E0FEF719FC02463B69D31A022B01D946
:1038B0000323A1E12D4B1B6803F00203002BF0D082
:1038C0002A4B1B6823F0F8027B685B69DB00274901
:1038D00013430B6015E0264B00221A60FEF7FCFB39
:1038E000386108E0FEF7F8FB02463B69D31A022B69
:1038F00001D9032380E11D4B1B6803F00203002B59
:10390000F0D17B681B6803F00803002B3AD07B687A
:103910009B69002B19D0174B01221A60FEF7DCFBC4
:10392000386108E0FEF7D8FB02463B69D31A022B48
:1039300001D9032360E10D4B5B6A03F00203002B06
:10394000F0D0012000F0CEFA1CE00A4B00221A60F1
:10395000FEF7C2FB38610FE0FEF7BEFB02463B6993
:10396000D31A022B08D9032346E100BF00100240FE
:103970000000424280044242924B5B6A03F0020321
:10398000002BE9D17B681B6803F00403002B00F0D7
:10399000A6800023FB758B4BDB6903F08053002B63
:1039A0000DD1884BDB69874A43F08053D361854B47
:1039B000DB6903F08053BB60BB680123FB75824B5E
:1039C0001B6803F48073002B18D17F4B1B687E4A61
:1039D00043F480731360FEF77FFB386108E0FEF765
:1039E0007BFB02463B69D31A642B01D9032303E115
:1039F000754B1B6803F48073002BF0D07B68DB6889
:103A0000012B06D16F4B1B6A6E4A43F00103136210
:103A10002DE07B68DB68002B0CD16A4B1B6A694A7E
:103A200023F001031362674B1B6A664A23F0040309
:103A300013621CE07B68DB68052B0CD1614B1B6AB1
:103A4000604A43F0040313625E4B1B6A5D4A43F015
:103A5000010313620BE05B4B1B6A5A4A23F001031C
:103A60001362584B1B6A574A23F0040313627B68A6
:103A7000DB68002B15D0FEF72FFB38610AE0FEF75C
:103A80002BFB02463B69D31A41F28832934201D99B
:103A90000323B1E04B4B1B6A03F00203002BEED073
:103AA00014E0FEF719FB38610AE0FEF715FB024649
:103AB0003B69D31A41F28832934201D903239BE038
:103AC000404B1B6A03F00203002BEED1FB7D012B60
:103AD00005D13C4BDB693B4A23F08053D3617B68C3
:103AE000DB69002B00F08780364B5B6803F00C032A
:103AF000082B61D07B68DB69022B46D1334B002257
:103B00001A60FEF7E9FA386108E0FEF7E5FA0246C6
:103B10003B69D31A022B01D903236DE0294B1B68A3
:103B200003F00073002BF0D17B681B6AB3F5803F74
:103B300008D1244B5B6823F400327B689B682149E1
:103B400013434B601F4B5B6823F474127B68196A44
:103B50007B685B6A0B431B4913434B601B4B012281
:103B60001A60FEF7B9FA386108E0FEF7B5FA0246C6
:103B70003B69D31A022B01D903233DE0114B1B688B
:103B800003F00073002BF0D035E0104B00221A60D8
:103B9000FEF7A2FA386108E0FEF79EFA02463B699A
:103BA000D31A022B01D9032326E0064B1B6803F02E
:103BB0000073002BF0D11EE07B68DB69012B07D17D
:103BC000012319E0001002400070004060004242F2
:103BD0000B4B5B68FB60FB6803F480327B681B6AFD
:103BE0009A4206D1FB6803F470127B685B6A9A42C2
:103BF00001D0012300E0002318461837BD4680BDE0
:103C00000010024080B584B000AF786039607B68F6
:103C1000002B01D10123D0E06A4B1B6803F007039E
:103C20003A689A4210D9674B1B6823F0070265492E
:103C30003B6813430B60634B1B6803F007033A6850
:103C40009A4201D00123B8E07B681B6803F00203AD
:103C5000002B20D07B681B6803F00403002B05D0E9
:103C6000594B5B68584A43F4E06353607B681B68B8
:103C700003F00803002B05D0534B5B68524A43F412
:103C800060535360504B5B6823F0F0027B689B6885
:103C90004D4913434B607B681B6803F00103002B05
:103CA00040D07B685B68012B07D1474B1B6803F44E
:103CB0000033002B15D101237FE07B685B68022B6A
:103CC00007D1414B1B6803F00073002B09D101237E
:103CD00073E03D4B1B6803F00203002B01D101236D
:103CE0006BE0394B5B6823F003027B685B68364905
:103CF00013434B60FEF7F0F9F8600AE0FEF7ECF9C9
:103D00000246FB68D31A41F28832934201D9032359
:103D100053E02D4B5B6803F00C027B685B689B00F3
:103D20009A42EBD1274B1B6803F007033A689A428B
:103D300010D2244B1B6823F0070222493B6813432F
:103D40000B60204B1B6803F007033A689A4201D0CE
:103D5000012332E07B681B6803F00403002B08D0CA
:103D6000194B5B6823F4E0627B68DB6816491343F8
:103D70004B607B681B6803F00803002B09D0124BD3
:103D80005B6823F460527B681B69DB000E491343B8
:103D90004B6000F021F802460B4B5B681B0903F0F7
:103DA0000F030A49CB5C22FA03F3094A1360094B5B
:103DB0001B681846FEF74EF9002318461037BD461B
:103DC00080BD00BF0020024000100240489400085F
:103DD000080000200C00002080B487B000AF002352
:103DE000FB600023BB6000237B6100237B6000231A
:103DF0003B611E4B5B68FB60FB6803F00C03042B0C
:103E000002D0082B03D027E0194B3B6127E0FB6869
:103E10009B0C03F00F03174AD35C7B60FB6803F431
:103E20008033002B10D0114B5B685B0C03F0010357
:103E3000114AD35CBB607B680D4A03FB02F2BB688E
:103E4000B2FBF3F37B6104E07B680C4A02FB03F3F3
:103E50007B617B693B6102E0054B3B6100BF3B69D5
:103E600018461C37BD4680BC704700BF001002409A
:103E700000127A00609400087094000800093D0068
:103E800080B400AF024B1B681846BD4680BC70472B
:103E90000800002080B500AFFFF7F2FF0246054B97
:103EA0005B681B0A03F007030349CB5C22FA03F3A8
:103EB000184680BD001002405894000880B500AF3D
:103EC000FFF7DEFF0246054B5B68DB0A03F00703E2
:103ED0000349CB5C22FA03F3184680BD0010024070
:103EE0005894000880B485B000AF78600A4B1B6816
:103EF0000A4AA2FB03235B0A7A6802FB03F3FB6016
:103F000000BFFB685A1EFA60002BF9D100BF00BF4A
:103F10001437BD4680BC704708000020D34D6210A6
:103F200080B582B000AF78607B68002B01D101239F
:103F300041E07B6893F83D30DBB2002B06D17B6813
:103F4000002283F83C207868FDF7D4FE7B680222CB
:103F500083F83D207B681A687B6804331946104655
:103F600000F092F97B68012283F846207B680122E9
:103F700083F83E207B68012283F83F207B68012282
:103F800083F840207B68012283F841207B6801226E
:103F900083F842207B68012283F843207B6801225A
:103FA00083F844207B68012283F845207B68012246
:103FB00083F83D20002318460837BD4680BD000029
:103FC00080B584B000AF786039603B68002B09D1C0
:103FD0007B6893F83E30DBB2012B14BF0123002332
:103FE000DBB222E03B68042B09D17B6893F83F30B9
:103FF000DBB2012B14BF01230023DBB215E03B68C9
:10400000082B09D17B6893F84030DBB2012B14BF39
:1040100001230023DBB208E07B6893F84130DBB278
:10402000012B14BF01230023DBB2002B01D001239D
:104030005EE03B68002B04D17B68022283F83E20BF
:1040400013E03B68042B04D17B68022283F83F20F5
:104050000BE03B68082B04D17B68022283F84020E8
:1040600003E07B68022283F841207B681B68012201
:104070003968184600F0FEFA7B681B681E4A9342B6
:1040800007D17B681B685A6C7B681B6842F400424E
:104090005A647B681B68184A93420ED07B681B6881
:1040A000B3F1804F09D07B681B68144A934204D057
:1040B0007B681B68124A934211D17B681B689B681E
:1040C00003F00703FB60FB68062B10D07B681B68BE
:1040D0001A687B681B6842F001021A6007E07B687F
:1040E0001B681A687B681B6842F001021A60002393
:1040F00018461037BD4680BD002C0140000400402A
:104100000008004080B586B000AFF860B9607A6002
:104110000023FB75FB6893F83C30012B01D102238F
:10412000AEE0FB68012283F83C207B680C2B00F298
:104130009F8001A252F823F06D41000871420008EF
:104140007142000871420008AD4100087142000848
:104150007142000871420008EF41000871420008F6
:1041600071420008714200082F420008FB681B687A
:10417000B968184600F0F6F8FB681B689A69FB6896
:104180001B6842F008029A61FB681B689A69FB6829
:104190001B6822F004029A61FB681B689969BB687E
:1041A0001A69FB681B680A439A6164E0FB681B6834
:1041B000B968184600F03CF9FB681B689A69FB680F
:1041C0001B6842F400629A61FB681B689A69FB688D
:1041D0001B6822F480629A61FB681B689969BB685E
:1041E0001B691A02FB681B680A439A6143E0FB687B
:1041F0001B68B968184600F085F9FB681B68DA6926
:10420000FB681B6842F00802DA61FB681B68DA6928
:10421000FB681B6822F00402DA61FB681B68D9693D
:10422000BB681A69FB681B680A43DA6123E0FB6814
:104230001B68B968184600F0CFF9FB681B68DA699B
:10424000FB681B6842F40062DA61FB681B68DA698C
:10425000FB681B6822F48062DA61FB681B68D9691D
:10426000BB681B691A02FB681B680A43DA6102E03B
:104270000123FB7500BFFB68002283F83C20FB7D17
:1042800018461837BD4680BD80B485B000AF786051
:1042900039607B681B68FB607B682F4A93420BD0B8
:1042A0007B68B3F1804F07D07B682C4A934203D0E0
:1042B0007B682B4A934208D1FB6823F07003FB60B4
:1042C0003B685B68FA681343FB607B68224A934251
:1042D0000BD07B68B3F1804F07D07B681F4A9342B5
:1042E00003D07B681E4A934208D1FB6823F44073D5
:1042F000FB603B68DB68FA681343FB60FB6823F0F4
:1043000080023B685B691343FB607B68FA681A6054
:104310003B689A687B68DA623B681A687B689A62D5
:104320007B680D4A934203D13B681A697B681A6324
:104330007B6801225A617B681B6903F00103002B33
:1043400005D07B681B6923F001027B681A6100BFFE
:104350001437BD4680BC7047002C0140000400406B
:104360000008004080B487B000AF786039607B6897
:104370001B6A7B617B681B6A23F001027B681A62FF
:104380007B685B683B617B689B69FB60FB6823F033
:104390007003FB60FB6823F00303FB603B681B6852
:1043A000FA681343FB607B6923F002037B613B687F
:1043B0009B687A6913437B617B681C4A93420CD1EA
:1043C0007B6923F008037B613B68DB687A691343F0
:1043D0007B617B6923F004037B617B68134A934212
:1043E00011D13B6923F480733B613B6923F4007373
:1043F0003B613B685B693A6913433B613B689B697E
:104400003A6913433B617B683A695A607B68FA6892
:104410009A613B685A687B685A637B687A691A625A
:1044200000BF1C37BD4680BC704700BF002C014058
:1044300080B487B000AF786039607B681B6A7B61AD
:104440007B681B6A23F010027B681A627B685B68DA
:104450003B617B689B69FB60FB6823F4E043FB6086
:10446000FB6823F44073FB603B681B681B02FA681F
:104470001343FB607B6923F020037B613B689B68EF
:104480001B017A6913437B617B681D4A93420DD1FE
:104490007B6923F080037B613B68DB681B017A69E1
:1044A00013437B617B6923F040037B617B68144A83
:1044B000934213D13B6923F480633B613B6923F44E
:1044C00000633B613B685B699B003A6913433B6156
:1044D0003B689B699B003A6913433B617B683A697F
:1044E0005A607B68FA689A613B685A687B689A638D
:1044F0007B687A691A6200BF1C37BD4680BC704772
:10450000002C014080B487B000AF786039607B68D0
:104510001B6A7B617B681B6A23F480727B681A626A
:104520007B685B683B617B68DB69FB60FB6823F051
:104530007003FB60FB6823F00303FB603B681B68B0
:10454000FA681343FB607B6923F400737B613B686B
:104550009B681B027A6913437B617B681D4A934207
:104560000DD17B6923F400637B613B68DB681B0230
:104570007A6913437B617B6923F480637B617B6889
:10458000144A934213D13B6923F480533B613B6946
:1045900023F400533B613B685B691B013A69134399
:1045A0003B613B689B691B013A6913433B617B6834
:1045B0003A695A607B68FA68DA613B685A687B68D6
:1045C000DA637B687A691A6200BF1C37BD4680BC1B
:1045D000704700BF002C014080B487B000AF786006
:1045E00039607B681B6A3B617B681B6A23F48052DD
:1045F0007B681A627B685B687B617B68DB69FB6058
:10460000FB6823F4E043FB60FB6823F44073FB602A
:104610003B681B681B02FA681343FB603B6923F489
:1046200000533B613B689B681B033A6913433B6142
:104630007B680F4A934209D17B6923F480437B61F5
:104640003B685B699B017A6913437B617B687A698C
:104650005A607B68FA68DA613B685A687B681A645A
:104660007B683A691A6200BF1C37BD4680BC704740
:10467000002C014080B487B000AFF860B9607A6068
:10468000BB6803F01F03012202FA03F37B61FB689E
:104690001A6A7B69DB431A40FB681A62FB681A6A74
:1046A000BB6803F01F03796801FA03F31A43FB6840
:1046B0001A6200BF1C37BD4680BC704780B485B00D
:1046C00000AF786039607B6893F83C30012B01D1F2
:1046D000022346E07B68012283F83C207B680222AB
:1046E00083F83D207B681B685B68FB607B681B6808
:1046F0009B68BB60FB6823F07003FB603B681B6832
:10470000FA681343FB607B681B68FA685A607B6831
:104710001B68164A93420ED07B681B68B3F1804F2A
:1047200009D07B681B68124A934204D07B681B68DF
:10473000104A93420CD1BB6823F08003BB603B68F6
:104740005B68BA681343BB607B681B68BA689A6091
:104750007B68012283F83D207B68002283F83C209F
:10476000002318461437BD4680BC7047002C01401A
:10477000000400400008004080B582B000AF7860BF
:104780007B68002B01D1012342E07B6893F8413024
:10479000DBB2002B06D17B68002283F840207868CA
:1047A000FDF7F8FA7B68242283F841207B681B68B8
:1047B000DA687B681B6822F40052DA60786800F0DF
:1047C0002BF87B681B681A697B681B6822F490428F
:1047D0001A617B681B685A697B681B6822F02A0291
:1047E0005A617B681B68DA687B681B6842F4005278
:1047F000DA607B6800225A647B68202283F84120BB
:104800007B68202283F842207B6800225A630023C1
:1048100018460837BD4680BD80B584B000AF7860CB
:104820007B681B681B6923F440517B68DA687B68EE
:104830001B680A431A617B689A687B681B691A4384
:104840007B685B691343BB607B681B68DB6823F490
:10485000B05323F00C037A681268B9680B43D36035
:104860007B681B685B6923F440717B689A697B688D
:104870001B680A435A617B681B682C4A934203D128
:10488000FFF71CFBF86002E0FFF704FBF860FA6832
:1048900013469B0013449A001A447B685B689B0094
:1048A000B2FBF3F3224AA2FB03235B091901FA6866
:1048B00013469B0013449A001A447B685B689B0074
:1048C000B2FBF3F21A4BA3FB02035B09642000FB6B
:1048D00003F3D31A1B013233154AA2FB03235B09EE
:1048E00003F0F0031944FA6813469B0013449A003E
:1048F0001A447B685B689B00B2FBF3F20C4BA3FB92
:1049000002035B09642000FB03F3D31A1B0132335B
:10491000074AA2FB03235B0903F00F027B681B68B5
:104920000A449A6000BF1037BD4680BD0038014080
:104930001F85EB51002B2DE9F0471D46BBBF03F14E
:1049400000431D4600232D2388B01446B8BF1446EB
:10495000129A109E1370149BDDF84CA023F02008CF
:10496000B8F1460F05D0B8F1450F00D1013602234A
:1049700000E0032307AA049206AACDE902A2CDE92A
:10498000003622462B4601F07BF8B8F1470F074668
:1049900019D1119BDB070ED500EB0609002200237D
:1049A00020462946FCF700F808B1CDF81C903022CB
:1049B000079B4B451ED33846079B159ADB1B13609C
:1049C00008B0BDE8F087B8F1460F00EB0609E5D165
:1049D0000378302B0AD10022002320462946FBF71A
:1049E000E3FF18B9C6F10106CAF80060DAF8003032
:1049F0009944D3E7591C07911A70D9E7F7B50029F4
:104A0000B6BF2D232B23494209290270437029DDAB
:104A10000DF107031D460A27B1FBF7F61A4607FBFF
:104A20001614303402F8014C0C46632C314603F165
:104A3000FF33F1DC3031941E03F8011C2346411C86
:104A4000AB420AD30DF109039B1AAC4288BF002385
:104A500002330344181A03B0F0BD13F8016B01F8D8
:104A6000016FEDE7302330318370C170031DF1E732
:104A70002DE9F04F91B00C46DDF8688016461F46D0
:104A8000054600F0EBFE036818460893FBF760FB51
:104A900000230E93D8F800300990073323F0070362
:104AA00003F1080294F818A0D4F800B0C8F8002068
:104AB000D3E9008929F000430B93CDF828804FF00B
:104AC000FF32DDE90A01C4E912899C4BFBF79EFF26
:104AD00070BBDDE90A014FF0FF32984BFBF778FF1E
:104AE00030BB0022002340464946FBF767FF10B168
:104AF0002D2384F84330924A924BBAF1470F8CBF72
:104B00009046984603234FF0000923612BF00403DD
:104B1000236033462146284600970FAA00F0D4F9B7
:104B2000013040F090804FF0FF3011B0BDE8F08FC1
:104B300042464B4640464946FBF768FF48B14B4664
:104B4000002BB8BF2D23804AB8BF84F843307F4B79
:104B5000D3E763680AF0DF015A1C3FD10623636084
:104B600000224BF48063236006920EAACDE904A2D2
:104B70000DAA03920DF13302CDE90132636842467A
:104B8000009328464B460A91FFF7D4FE0A998046C7
:104B900047290D9928D1C81C02DB6368994240DD82
:104BA000AAF1020A5FFA8AFA5246013904F150006A
:104BB0000D91FFF723FF0E9A81461318012A2361F6
:104BC00002DC2268D20701D5013323619DF833301E
:104BD000002B9ED02D2384F843309AE74729BFD17C
:104BE000002BBDD10123BAE7BAF1650FDCD9BAF1C8
:104BF000660F18D1002963680BDD216113B92268A3
:104C0000D00702D501330B4423614FF00009A165A1
:104C1000DCE713B92268D20701D50233F4E7012398
:104C2000F2E74FF0670A0E9B994205DB236821618A
:104C3000D807EAD54B1CE7E70029CCBF0122C1F118
:104C400002021344E0E723685A0507D42369424669
:104C500031462846B84701302BD164E7BAF1650FD9
:104C600040F2DC80D4E9120100220023FBF79CFE15
:104C7000002833D0012331462846354AB847013051
:104C80003FF451AFDDE90D38434502DB2368D80717
:104C90000FD5DDE9082331462846B84701303FF4F7
:104CA00042AF4FF0000908F1FF3804F11A0AC84575
:104CB00009DC23689B0700F10281E0680F9B9842A2
:104CC000B8BF184631E70123524631462846B84757
:104CD00001303FF428AF09F10109E8E70D9B002BF3
:104CE00038DC012331462846194AB84701303FF4E1
:104CF0001AAFDDE90D3959EA030302D12368D90758
:104D0000D7D5DDE9082331462846B84701303FF4BE
:104D10000AAF4FF0000A04F11A0B0D9B5B4253459A
:104D200001DC4B4693E701235A4631462846B847F3
:104D300001303FF4F8AE0AF1010AEEE7FFFFEF7F22
:104D400076940008729400087E9400087A94000813
:104D500082940008A36DDDF838A05345A8BF5346E0
:104D6000002B994636DC4FF0000B29EAE97904F173
:104D70001A02A36D0A93A3EB09035B4531DC0D9B7B
:104D80009A453ADC2368DA0737D40D9BAAEB03096E
:104D90000A9BAAEB03039945A8BF9946B9F1000FF6
:104DA00033DC4FF0000829EAE97904F11A0B0D9B76
:104DB000AAEB0303A3EB090343457FF77AAF012373
:104DC0005A4631462846B84701303FF4ACAE08F1A8
:104DD0000108ECE7424631462846B8470130C2D1C7
:104DE000A1E60123314628460A92B84701303FF434
:104DF0009AAE0A9A0BF1010BBBE73146DDE90823B5
:104E00002846B8470130C0D18DE60A9A4B46314654
:104E100028464244B8470130C3D184E6DDF838A0C3
:104E2000BAF1010F01DCDB0736D5012342463146DA
:104E30002846B84701303FF476AEDDE90823314615
:104E40002846B84701303FF46EAED4E91201002283
:104E500000230AF1FF3AFBF7A7FDC0B9534608F15A
:104E6000010231462846B84701300CD15BE60123E8
:104E70005A4631462846B84701303FF454AE08F14F
:104E80000108D045F3DB4B4604F15002E0E64FF059
:104E9000000804F11A0BF4E701234246E1E701237D
:104EA0004A4631462846B84701303FF43CAE08F147
:104EB0000108E3680F995B1A4345F0DCFDE64FF00B
:104EC000000804F11909F4E72DE9F0471646984661
:104ED0008A680B6907469342B8BF1346336091F85E
:104EE00043200C46DDF820900AB10133336023687B
:104EF000990642BF336802333360256815F0060512
:104F000006D104F1190AE36832689B1AAB422BDC24
:104F100094F843302268003B18BF0123920630D436
:104F20004146384604F14302C847013023D0236884
:104F3000226903F00603042B14BF002533684FF0E9
:104F4000000608BFE56804F11A0408BFED1A54F81A
:104F5000123C08BF25EAE5759342C4BF9B1AED18C1
:104F6000B5421AD1002008E0012352464146384696
:104F7000C847013003D14FF0FF30BDE8F08701355D
:104F8000C1E73020E11881F843005A1C94F845101D
:104F90002244023382F84310C2E7012322464146ED
:104FA0003846C8470130E6D00136D9E72DE9FF473A
:104FB0000F7E9146782F80460C469A460C9E01F152
:104FC000430207D8622F0AD8002F00F0D180582F53
:104FD00000F0B88004F1420684F842703AE0A7F18C
:104FE0006303152BF6D801A151F823F045500008B2
:104FF00059500008D54F0008D54F0008D54F00087C
:10500000D54F000859500008D54F0008D54F00086B
:10501000D54F0008D54F00085751000883500008AD
:1050200011510008D54F0008D54F000879510008EC
:10503000D54F000883500008D54F0008D54F000811
:105040001951000833681A1D1B68326004F14206CA
:1050500084F8423001239CE033682068191D3160D8
:10506000060601D51D6803E04506FBD5B3F90050DF
:10507000002D03DA2D236D4284F843300A2358486B
:1050800011E021683368080653F8045B02D449062E
:1050900048BFADB26F2F336014BF0A2308235048B6
:1050A000002184F843106668002EA66005DB2168A5
:1050B0002E4321F0040121604BD01646B5FBF3F1DD
:1050C00003FB1157C75D06F8017D2F46BB420D4615
:1050D000F4D9082B0BD12368DF0708D52369616851
:1050E0009942DEBF302306F8013C06F1FF36921BE1
:1050F00022614B4621464046CDF800A003AAFFF7A7
:10510000E3FE01304AD14FF0FF3004B0BDE8F08734
:10511000236843F0200323607827324884F84570E1
:10512000236831681F0651F8045B02D45F0648BF4C
:10513000ADB23160D90744BF43F0200323601DB1F5
:105140001023ADE72648E9E7236823F02003236016
:10515000F6E71646BDE733682568181D61693060BB
:105160002E061B6801D5196002E06806FBD5198080
:10517000002316462361BCE7336800211A1D326004
:105180001E686268304600F0E0FB08B1801B60607A
:1051900063682361002384F84330AAE73246494616
:1051A00040462369D0470130ADD023689B0713D414
:1051B000E068039B9842B8BF1846A6E70123324631
:1051C00049464046D04701309DD00135E3680399F8
:1051D0005B1AAB42F2DCEBE7002504F11906F5E7B8
:1051E00084940008959400082DE9F04F87B003934C
:1051F0008B6891465A1EB2F5AE7F82BF6FF4AE75D2
:1052000003EB050B40F25D130A464FF0000588BF23
:105210008B600B68804643F4F06342F81C3B0C46FD
:1052200098BF4FF0000B1646AA462F46CDE904550D
:1052300001920295A2685AB1D9F800301B784E2B22
:1052400062D8402B3AD8A3F12B01C8B20E2838D926
:105250001FB1236823F4807323600AF1FF3ABAF187
:10526000010F00F21481019B9E4200F20581012092
:1052700007B0BDE8F08FA3F161020D2AE8D801A1C3
:1052800051F822F0CD530008515200085152000845
:1052900051520008295400080354000851520008D4
:1052A00051520008DB5300085152000851520008C7
:1052B000515200085152000897530008A3F14102CF
:1052C000DBE70E29C4D801A050F821F0875300086D
:1052D0005152000887530008175400085152000823
:1052E000295300086D5300086D5300086D530008E2
:1052F0006D5300086D5300086D5300086D5300088E
:105300006D5300086D5300086E2B09D8602BB2D87E
:10531000542B7BD0592B9BD1072D99D108252FE0F9
:10532000742B73D0792BF6E72168C8051ED521F0C0
:10533000800121600137BBF1000F03D001320BF176
:10534000FF3BA260A368013BA36023690133236193
:10535000D9F80430013B002BC9F8043040F38380B6
:10536000D9F800300133C9F8003063E71AEB0501C2
:105370007FF46EAF0D468A46226822F4C072226026
:1053800006F8013BDEE7226810067FF561AF22F0E8
:1053900080022260F4E7BAF1000F0CD177B92268DD
:1053A00002F4E061B1F5E06F08D122F4F0624FF051
:1053B000010A2260E4E7BAF1020F51D0012D02D0B8
:1053C000042D7FF445AF0135EDB2D9E7BAF1010FF5
:1053D0007FF43EAF4FF0020AD2E775B9002F7FF499
:1053E00038AF226802F4E061B1F5E06F40F0FF8071
:1053F00022F4F06201252260C2E7032DE3D0052DDF
:10540000DFE7022D7FF424AF0325B9E7062D7FF4F3
:105410001FAF0725B4E7226891057FF519AF22F485
:10542000207222600297ABE7226802F4A061B1F516
:10543000806F05D050057FF50BAF002F00F0D780AF
:10544000910558BF029922F4F06258BF791A42F4CC
:10545000C0724FF0000758BFCDE9041622608FE7F5
:105460004FF0030A8CE749464046D4F8803198470C
:1054700000283FF4DFAEEBE6D4F87C314A464046E4
:1054800016F8011D98472369013B2361EBE66B1E6B
:10549000062B24D8022D36D8019B9E427FF6E7AE1C
:1054A000D4F87C314A46404616F8011D98472369D6
:1054B000013B2361F0E7D4F87C314A4640461BF8B3
:1054C000011D98472369013B23610AF1FF3A5FFA06
:1054D0008AFABAF1020FEED1033DEDB2761B2368D2
:1054E000DA0530D55B0511D5019B9E427FF6BFAE34
:1054F000D4F87C314A46404616F8011D9847236986
:10550000013B2361F0E7AA46B346DEE716F8011C2B
:105510002369652903F1FF3306F1FF3523610CD0C0
:1055200045290AD0D4F87C314A4640469847236939
:1055300016F8021C013BB51E23614A464046D4F8CA
:105540007C3198472E46226812F0100201D00020CC
:105550008EE63270236803F4C063B3F5806F25D103
:10556000029B9F420AD0DA1B04F26F139E4228BFAF
:1055700004F5B77630461F4900F002F90022404694
:10558000019902F0E9FB039B25681B6815F0020FE7
:1055900006460F4603F1040215D003990A601B6802
:1055A000C3E90067E3680133E360D0E7049B002BA5
:1055B000E4D005990A234046013102F04DFC049BDA
:1055C000059EC21AD0E76D07E7D4039D2A601D68C7
:1055D00002460B46FBF71AFA20B1074800F0C4F95F
:1055E0002860DFE730463946FBF76EFAF8E7002718
:1055F00033E600BFA6940008E7950008002310B525
:105600000446C0E90033C0E9043383608181436606
:10561000C2818361194608225C3000F016F90D4BF7
:10562000246263620C4BA3620C4BE3620C4B23635A
:105630000C4B9C4206D003F16802944202D0D03356
:105640009C4205D104F15800BDE8104000F07AB941
:1056500010BD00BFC5570008E75700081F580008D5
:105660004358000834030020024A0349034800F06D
:1056700069B800BF140000200D820008240000203B
:1056800041680C4B10B59942044601D002F0BEFDB2
:10569000A168094B994202D0204602F0B7FDE168AB
:1056A000064B994204D02046BDE8104002F0AEBD42
:1056B00010BD00BF340300209C0300200404002020
:1056C00010B50B4B0B4C0C4A20461A6004210022EB
:1056D000FFF794FF04F1680001220921FFF78EFF14
:1056E00004F1D0000222BDE810401221FFF786BF6E
:1056F0006C0400203403002069560008014800F0C3
:1057000022B900BF75040020014800F01DB900BF98
:105710007504002010B50446FFF7F0FF236A1BB1A3
:10572000BDE81040FFF7F0BF044B2362044B1B6839
:10573000002BF5D1FFF7C4FFF2E700BF8156000848
:105740006C0400202DE9F8430746884614460026DD
:10575000D4E90195B9F1010905D52468002CF7D1E8
:105760003046BDE8F883AB89012B07D9B5F90E3077
:10577000013303D029463846C04706436835E9E778
:105780000EB46FF0004110B500249DB01FAB029025
:105790000690079104910948094953F8042B059193
:1057A000006802A901931B9402F0B4FB029B1C70D9
:1057B0001DB0BDE8104003B0704700BF20000020BE
:1057C0000802FFFF10B50C46B1F90E1000F06CF89E
:1057D0000028ABBF636DA3891B1823F48053ACBFB3
:1057E0006365A38110BD2DE9F0411F468B890546F5
:1057F000DB050C46164605D502230022B1F90E1032
:1058000000F040F8A389324623F48053A381284650
:105810003B46B4F90E10BDE8F04100F057B810B5A2
:105820000C46B1F90E1000F02DF8431CA38915BFEA
:10583000606523F4805343F48053A38118BFA38190
:1058400010BDB1F90E1000F00DB8034602449342AA
:1058500000D1704703F8011BF9E7000000487047CA
:105860006001002038B50023054D044608462B6032
:10587000FCF747FB431C02D12B6803B1236038BD02
:105880007004002038B50446084611460022054D34
:105890002A601A46FCF759FB431C02D12B6803B15E
:1058A000236038BD7004002038B504460846114610
:1058B0000022054D2A601A46FCF706FB431C02D164
:1058C0002B6803B1236038BD7004002038B504464E
:1058D000084611460022054D2A601A46FBF7B0FC27
:1058E000431C02D12B6803B1236038BD7004002033
:1058F000014B1868704700BF2000002070B50026DB
:105900000C4D0D4C641BA410A64209D103F08EFD72
:1059100000260A4D0A4C641BA410A64205D170BD96
:1059200055F8043B98470136EEE755F8043B984795
:105930000136F2E7E4980008E4980008E4980008CB
:10594000E8980008704770477047034610B5C9B221
:1059500002449342184601D1002003E00478013349
:105960008C42F6D110BD0000004870470000C07F97
:105970002DE9F74F03690C690746A3427EDB013C22
:10598000A30000F1140501F11408009305EB840352
:10599000019358F8243055F8242001339A42B2FB81
:1059A000F3F608EB84092ED34FF0000AC446AE4646
:1059B000D3465CF8043B98B206FB00A01B0C020C1B
:1059C00006FB0323DEF8002080B292B2121A5A447A
:1059D000DEF800004FEA134A9BB2C3EB224303EB0D
:1059E000104392B242EA0342E1454FEA234B4EF89C
:1059F000042BDED2009BEB582BB9019B043B9D424C
:105A00001A462FD33C61384601F0C8F9002825DB3F
:105A10002946002058F8042BD1F800C01FFA82FE56
:105A20001FFA8CF3A3EB0E030344120CC2EB2342C8
:105A300002EB1C429BB243EA0243C1454FEA2240BB
:105A400041F8043BE6D255F8242005EB840322B943
:105A5000043B9D421A460BD33C610136304603B0ED
:105A6000BDE8F08F1268043B002ACBD1013CC6E7A9
:105A70001268043B002AEFD1013CEAE70020EEE780
:105A80002DE9F04F14461D46C76997B08146CDE910
:105A90000645239E7FB9102000F00EFE0246C9F88D
:105AA0001C0020B9EF21AC4BAC4802F027FCC0E948
:105AB00001770760C760D9F81C30196859B15A6876
:105AC000012393404A608B60484600F0EBFE0022C1
:105AD000D9F81C301A602B1EAFBF0023012223F01F
